{
	"AstroToken.sol/astroToken.sol": {
		"AstroToken": {
			"abi": [
				{
					"inputs": [],
					"stateMutability": "nonpayable",
					"type": "constructor"
				},
				{
					"anonymous": false,
					"inputs": [
						{
							"indexed": true,
							"internalType": "address",
							"name": "_owner",
							"type": "address"
						},
						{
							"indexed": true,
							"internalType": "address",
							"name": "_spender",
							"type": "address"
						},
						{
							"indexed": false,
							"internalType": "uint256",
							"name": "_value",
							"type": "uint256"
						}
					],
					"name": "Approval",
					"type": "event"
				},
				{
					"anonymous": false,
					"inputs": [
						{
							"indexed": true,
							"internalType": "address",
							"name": "_from",
							"type": "address"
						},
						{
							"indexed": true,
							"internalType": "address",
							"name": "_to",
							"type": "address"
						},
						{
							"indexed": false,
							"internalType": "uint256",
							"name": "_value",
							"type": "uint256"
						}
					],
					"name": "Transfer",
					"type": "event"
				},
				{
					"inputs": [
						{
							"internalType": "address",
							"name": "_owner",
							"type": "address"
						},
						{
							"internalType": "address",
							"name": "_spender",
							"type": "address"
						}
					],
					"name": "allowance",
					"outputs": [
						{
							"internalType": "uint256",
							"name": "remaining",
							"type": "uint256"
						}
					],
					"stateMutability": "view",
					"type": "function"
				},
				{
					"inputs": [
						{
							"internalType": "address",
							"name": "_spender",
							"type": "address"
						},
						{
							"internalType": "uint256",
							"name": "_value",
							"type": "uint256"
						}
					],
					"name": "approve",
					"outputs": [
						{
							"internalType": "bool",
							"name": "success",
							"type": "bool"
						}
					],
					"stateMutability": "nonpayable",
					"type": "function"
				},
				{
					"inputs": [
						{
							"internalType": "address",
							"name": "_addr",
							"type": "address"
						}
					],
					"name": "balanceOf",
					"outputs": [
						{
							"internalType": "uint256",
							"name": "balance",
							"type": "uint256"
						}
					],
					"stateMutability": "view",
					"type": "function"
				},
				{
					"inputs": [],
					"name": "decimals",
					"outputs": [
						{
							"internalType": "uint8",
							"name": "",
							"type": "uint8"
						}
					],
					"stateMutability": "view",
					"type": "function"
				},
				{
					"inputs": [
						{
							"internalType": "address",
							"name": "_addr",
							"type": "address"
						}
					],
					"name": "isContract",
					"outputs": [
						{
							"internalType": "bool",
							"name": "",
							"type": "bool"
						}
					],
					"stateMutability": "view",
					"type": "function"
				},
				{
					"inputs": [],
					"name": "name",
					"outputs": [
						{
							"internalType": "string",
							"name": "",
							"type": "string"
						}
					],
					"stateMutability": "view",
					"type": "function"
				},
				{
					"inputs": [],
					"name": "symbol",
					"outputs": [
						{
							"internalType": "string",
							"name": "",
							"type": "string"
						}
					],
					"stateMutability": "view",
					"type": "function"
				},
				{
					"inputs": [],
					"name": "totalSupply",
					"outputs": [
						{
							"internalType": "uint256",
							"name": "_totalSupply",
							"type": "uint256"
						}
					],
					"stateMutability": "view",
					"type": "function"
				},
				{
					"inputs": [
						{
							"internalType": "address",
							"name": "_to",
							"type": "address"
						},
						{
							"internalType": "uint256",
							"name": "_value",
							"type": "uint256"
						}
					],
					"name": "transfer",
					"outputs": [
						{
							"internalType": "bool",
							"name": "success",
							"type": "bool"
						}
					],
					"stateMutability": "nonpayable",
					"type": "function"
				},
				{
					"inputs": [
						{
							"internalType": "address",
							"name": "_from",
							"type": "address"
						},
						{
							"internalType": "address",
							"name": "_to",
							"type": "address"
						},
						{
							"internalType": "uint256",
							"name": "_value",
							"type": "uint256"
						}
					],
					"name": "transferFrom",
					"outputs": [
						{
							"internalType": "bool",
							"name": "success",
							"type": "bool"
						}
					],
					"stateMutability": "nonpayable",
					"type": "function"
				}
			],
			"devdoc": {
				"kind": "dev",
				"methods": {},
				"version": 1
			},
			"evm": {
				"assembly": "    /* \"AstroToken.sol/astroToken.sol\":851:4517  contract AstroToken is ERC20 {\r... */\n  mstore(0x40, 0x80)\n    /* \"AstroToken.sol/astroToken.sol\":1521:1600  constructor() public {\r... */\n  callvalue\n  dup1\n  iszero\n  tag_1\n  jumpi\n  0x00\n  dup1\n  revert\ntag_1:\n  pop\n    /* \"AstroToken.sol/astroToken.sol\":1090:1115  1000000000000000000000000 */\n  0xd3c21bcecceda1000000\n    /* \"AstroToken.sol/astroToken.sol\":1553:1564  __balanceOf */\n  0x00\n    /* \"AstroToken.sol/astroToken.sol\":1553:1576  __balanceOf[msg.sender] */\n  dup1\n    /* \"AstroToken.sol/astroToken.sol\":1565:1575  msg.sender */\n  caller\n    /* \"AstroToken.sol/astroToken.sol\":1553:1576  __balanceOf[msg.sender] */\n  0xffffffffffffffffffffffffffffffffffffffff\n  and\n  0xffffffffffffffffffffffffffffffffffffffff\n  and\n  dup2\n  mstore\n  0x20\n  add\n  swap1\n  dup2\n  mstore\n  0x20\n  add\n  0x00\n  keccak256\n    /* \"AstroToken.sol/astroToken.sol\":1553:1592  __balanceOf[msg.sender] = __totalSupply */\n  dup2\n  swap1\n  sstore\n  pop\n    /* \"AstroToken.sol/astroToken.sol\":851:4517  contract AstroToken is ERC20 {\r... */\n  dataSize(sub_0)\n  dup1\n  dataOffset(sub_0)\n  0x00\n  codecopy\n  0x00\n  return\nstop\n\nsub_0: assembly {\n        /* \"AstroToken.sol/astroToken.sol\":851:4517  contract AstroToken is ERC20 {\r... */\n      mstore(0x40, 0x80)\n      callvalue\n      dup1\n      iszero\n      tag_1\n      jumpi\n      0x00\n      dup1\n      revert\n    tag_1:\n      pop\n      jumpi(tag_2, lt(calldatasize, 0x04))\n      shr(0xe0, calldataload(0x00))\n      dup1\n      0x313ce567\n      gt\n      tag_13\n      jumpi\n      dup1\n      0x313ce567\n      eq\n      tag_8\n      jumpi\n      dup1\n      0x70a08231\n      eq\n      tag_9\n      jumpi\n      dup1\n      0x95d89b41\n      eq\n      tag_10\n      jumpi\n      dup1\n      0xa9059cbb\n      eq\n      tag_11\n      jumpi\n      dup1\n      0xdd62ed3e\n      eq\n      tag_12\n      jumpi\n      jump(tag_2)\n    tag_13:\n      dup1\n      0x06fdde03\n      eq\n      tag_3\n      jumpi\n      dup1\n      0x095ea7b3\n      eq\n      tag_4\n      jumpi\n      dup1\n      0x16279055\n      eq\n      tag_5\n      jumpi\n      dup1\n      0x18160ddd\n      eq\n      tag_6\n      jumpi\n      dup1\n      0x23b872dd\n      eq\n      tag_7\n      jumpi\n    tag_2:\n      0x00\n      dup1\n      revert\n        /* \"AstroToken.sol/astroToken.sol\":931:974  string public constant name = \"Astro Token\" */\n    tag_3:\n      tag_14\n      tag_15\n      jump\t// in\n    tag_14:\n      mload(0x40)\n      dup1\n      dup1\n      0x20\n      add\n      dup3\n      dup2\n      sub\n      dup3\n      mstore\n      dup4\n      dup2\n      dup2\n      mload\n      dup2\n      mstore\n      0x20\n      add\n      swap2\n      pop\n      dup1\n      mload\n      swap1\n      0x20\n      add\n      swap1\n      dup1\n      dup4\n      dup4\n      0x00\n    tag_16:\n      dup4\n      dup2\n      lt\n      iszero\n      tag_18\n      jumpi\n      dup1\n      dup3\n      add\n      mload\n      dup2\n      dup5\n      add\n      mstore\n      0x20\n      dup2\n      add\n      swap1\n      pop\n      jump(tag_16)\n    tag_18:\n      pop\n      pop\n      pop\n      pop\n      swap1\n      pop\n      swap1\n      dup2\n      add\n      swap1\n      0x1f\n      and\n      dup1\n      iszero\n      tag_19\n      jumpi\n      dup1\n      dup3\n      sub\n      dup1\n      mload\n      0x01\n      dup4\n      0x20\n      sub\n      0x0100\n      exp\n      sub\n      not\n      and\n      dup2\n      mstore\n      0x20\n      add\n      swap2\n      pop\n    tag_19:\n      pop\n      swap3\n      pop\n      pop\n      pop\n      mload(0x40)\n      dup1\n      swap2\n      sub\n      swap1\n      return\n        /* \"AstroToken.sol/astroToken.sol\":4038:4265  function approve(address _spender, uint _value) external override returns (bool success) {\r... */\n    tag_4:\n      tag_20\n      0x04\n      dup1\n      calldatasize\n      sub\n      0x40\n      dup2\n      lt\n      iszero\n      tag_21\n      jumpi\n      0x00\n      dup1\n      revert\n    tag_21:\n      dup2\n      add\n      swap1\n      dup1\n      dup1\n      calldataload\n      0xffffffffffffffffffffffffffffffffffffffff\n      and\n      swap1\n      0x20\n      add\n      swap1\n      swap3\n      swap2\n      swap1\n      dup1\n      calldataload\n      swap1\n      0x20\n      add\n      swap1\n      swap3\n      swap2\n      swap1\n      pop\n      pop\n      pop\n      tag_22\n      jump\t// in\n    tag_20:\n      mload(0x40)\n      dup1\n      dup3\n      iszero\n      iszero\n      dup2\n      mstore\n      0x20\n      add\n      swap2\n      pop\n      pop\n      mload(0x40)\n      dup1\n      swap2\n      sub\n      swap1\n      return\n        /* \"AstroToken.sol/astroToken.sol\":3682:3959  function isContract(address _addr) public view returns (bool) {\r... */\n    tag_5:\n      tag_23\n      0x04\n      dup1\n      calldatasize\n      sub\n      0x20\n      dup2\n      lt\n      iszero\n      tag_24\n      jumpi\n      0x00\n      dup1\n      revert\n    tag_24:\n      dup2\n      add\n      swap1\n      dup1\n      dup1\n      calldataload\n      0xffffffffffffffffffffffffffffffffffffffff\n      and\n      swap1\n      0x20\n      add\n      swap1\n      swap3\n      swap2\n      swap1\n      pop\n      pop\n      pop\n      tag_25\n      jump\t// in\n    tag_23:\n      mload(0x40)\n      dup1\n      dup3\n      iszero\n      iszero\n      dup2\n      mstore\n      0x20\n      add\n      swap2\n      pop\n      pop\n      mload(0x40)\n      dup1\n      swap2\n      sub\n      swap1\n      return\n        /* \"AstroToken.sol/astroToken.sol\":1701:1820  function totalSupply() public view override returns (uint _totalSupply) {\r... */\n    tag_6:\n      tag_26\n      tag_27\n      jump\t// in\n    tag_26:\n      mload(0x40)\n      dup1\n      dup3\n      dup2\n      mstore\n      0x20\n      add\n      swap2\n      pop\n      pop\n      mload(0x40)\n      dup1\n      swap2\n      sub\n      swap1\n      return\n        /* \"AstroToken.sol/astroToken.sol\":2987:3508  function transferFrom(address _from, address _to, uint _value) public override returns (bool success) {\r... */\n    tag_7:\n      tag_28\n      0x04\n      dup1\n      calldatasize\n      sub\n      0x60\n      dup2\n      lt\n      iszero\n      tag_29\n      jumpi\n      0x00\n      dup1\n      revert\n    tag_29:\n      dup2\n      add\n      swap1\n      dup1\n      dup1\n      calldataload\n      0xffffffffffffffffffffffffffffffffffffffff\n      and\n      swap1\n      0x20\n      add\n      swap1\n      swap3\n      swap2\n      swap1\n      dup1\n      calldataload\n      0xffffffffffffffffffffffffffffffffffffffff\n      and\n      swap1\n      0x20\n      add\n      swap1\n      swap3\n      swap2\n      swap1\n      dup1\n      calldataload\n      swap1\n      0x20\n      add\n      swap1\n      swap3\n      swap2\n      swap1\n      pop\n      pop\n      pop\n      tag_30\n      jump\t// in\n    tag_28:\n      mload(0x40)\n      dup1\n      dup3\n      iszero\n      iszero\n      dup2\n      mstore\n      0x20\n      add\n      swap2\n      pop\n      pop\n      mload(0x40)\n      dup1\n      swap2\n      sub\n      swap1\n      return\n        /* \"AstroToken.sol/astroToken.sol\":981:1016  uint8 public constant decimals = 18 */\n    tag_8:\n      tag_31\n      tag_32\n      jump\t// in\n    tag_31:\n      mload(0x40)\n      dup1\n      dup3\n      0xff\n      and\n      dup2\n      mstore\n      0x20\n      add\n      swap2\n      pop\n      pop\n      mload(0x40)\n      dup1\n      swap2\n      sub\n      swap1\n      return\n        /* \"AstroToken.sol/astroToken.sol\":1877:1999  function balanceOf(address _addr) public view override returns (uint balance) {\r... */\n    tag_9:\n      tag_33\n      0x04\n      dup1\n      calldatasize\n      sub\n      0x20\n      dup2\n      lt\n      iszero\n      tag_34\n      jumpi\n      0x00\n      dup1\n      revert\n    tag_34:\n      dup2\n      add\n      swap1\n      dup1\n      dup1\n      calldataload\n      0xffffffffffffffffffffffffffffffffffffffff\n      and\n      swap1\n      0x20\n      add\n      swap1\n      swap3\n      swap2\n      swap1\n      pop\n      pop\n      pop\n      tag_35\n      jump\t// in\n    tag_33:\n      mload(0x40)\n      dup1\n      dup3\n      dup2\n      mstore\n      0x20\n      add\n      swap2\n      pop\n      pop\n      mload(0x40)\n      dup1\n      swap2\n      sub\n      swap1\n      return\n        /* \"AstroToken.sol/astroToken.sol\":887:924  string public constant symbol = \"ATK\" */\n    tag_10:\n      tag_36\n      tag_37\n      jump\t// in\n    tag_36:\n      mload(0x40)\n      dup1\n      dup1\n      0x20\n      add\n      dup3\n      dup2\n      sub\n      dup3\n      mstore\n      dup4\n      dup2\n      dup2\n      mload\n      dup2\n      mstore\n      0x20\n      add\n      swap2\n      pop\n      dup1\n      mload\n      swap1\n      0x20\n      add\n      swap1\n      dup1\n      dup4\n      dup4\n      0x00\n    tag_38:\n      dup4\n      dup2\n      lt\n      iszero\n      tag_40\n      jumpi\n      dup1\n      dup3\n      add\n      mload\n      dup2\n      dup5\n      add\n      mstore\n      0x20\n      dup2\n      add\n      swap1\n      pop\n      jump(tag_38)\n    tag_40:\n      pop\n      pop\n      pop\n      pop\n      swap1\n      pop\n      swap1\n      dup2\n      add\n      swap1\n      0x1f\n      and\n      dup1\n      iszero\n      tag_41\n      jumpi\n      dup1\n      dup3\n      sub\n      dup1\n      mload\n      0x01\n      dup4\n      0x20\n      sub\n      0x0100\n      exp\n      sub\n      not\n      and\n      dup2\n      mstore\n      0x20\n      add\n      swap2\n      pop\n    tag_41:\n      pop\n      swap3\n      pop\n      pop\n      pop\n      mload(0x40)\n      dup1\n      swap2\n      sub\n      swap1\n      return\n        /* \"AstroToken.sol/astroToken.sol\":2254:2609  function transfer(address _to, uint _value) public override returns (bool success) {\r... */\n    tag_11:\n      tag_42\n      0x04\n      dup1\n      calldatasize\n      sub\n      0x40\n      dup2\n      lt\n      iszero\n      tag_43\n      jumpi\n      0x00\n      dup1\n      revert\n    tag_43:\n      dup2\n      add\n      swap1\n      dup1\n      dup1\n      calldataload\n      0xffffffffffffffffffffffffffffffffffffffff\n      and\n      swap1\n      0x20\n      add\n      swap1\n      swap3\n      swap2\n      swap1\n      dup1\n      calldataload\n      swap1\n      0x20\n      add\n      swap1\n      swap3\n      swap2\n      swap1\n      pop\n      pop\n      pop\n      tag_44\n      jump\t// in\n    tag_42:\n      mload(0x40)\n      dup1\n      dup3\n      iszero\n      iszero\n      dup2\n      mstore\n      0x20\n      add\n      swap2\n      pop\n      pop\n      mload(0x40)\n      dup1\n      swap2\n      sub\n      swap1\n      return\n        /* \"AstroToken.sol/astroToken.sol\":4355:4512  function allowance(address _owner, address _spender) external override view returns (uint remaining) {\r... */\n    tag_12:\n      tag_45\n      0x04\n      dup1\n      calldatasize\n      sub\n      0x40\n      dup2\n      lt\n      iszero\n      tag_46\n      jumpi\n      0x00\n      dup1\n      revert\n    tag_46:\n      dup2\n      add\n      swap1\n      dup1\n      dup1\n      calldataload\n      0xffffffffffffffffffffffffffffffffffffffff\n      and\n      swap1\n      0x20\n      add\n      swap1\n      swap3\n      swap2\n      swap1\n      dup1\n      calldataload\n      0xffffffffffffffffffffffffffffffffffffffff\n      and\n      swap1\n      0x20\n      add\n      swap1\n      swap3\n      swap2\n      swap1\n      pop\n      pop\n      pop\n      tag_47\n      jump\t// in\n    tag_45:\n      mload(0x40)\n      dup1\n      dup3\n      dup2\n      mstore\n      0x20\n      add\n      swap2\n      pop\n      pop\n      mload(0x40)\n      dup1\n      swap2\n      sub\n      swap1\n      return\n        /* \"AstroToken.sol/astroToken.sol\":931:974  string public constant name = \"Astro Token\" */\n    tag_15:\n      mload(0x40)\n      dup1\n      0x40\n      add\n      0x40\n      mstore\n      dup1\n      0x0b\n      dup2\n      mstore\n      0x20\n      add\n      0x417374726f20546f6b656e000000000000000000000000000000000000000000\n      dup2\n      mstore\n      pop\n      dup2\n      jump\t// out\n        /* \"AstroToken.sol/astroToken.sol\":4038:4265  function approve(address _spender, uint _value) external override returns (bool success) {\r... */\n    tag_22:\n        /* \"AstroToken.sol/astroToken.sol\":4113:4125  bool success */\n      0x00\n        /* \"AstroToken.sol/astroToken.sol\":4175:4181  _value */\n      dup2\n        /* \"AstroToken.sol/astroToken.sol\":4138:4150  __allowances */\n      0x01\n        /* \"AstroToken.sol/astroToken.sol\":4138:4162  __allowances[msg.sender] */\n      0x00\n        /* \"AstroToken.sol/astroToken.sol\":4151:4161  msg.sender */\n      caller\n        /* \"AstroToken.sol/astroToken.sol\":4138:4162  __allowances[msg.sender] */\n      0xffffffffffffffffffffffffffffffffffffffff\n      and\n      0xffffffffffffffffffffffffffffffffffffffff\n      and\n      dup2\n      mstore\n      0x20\n      add\n      swap1\n      dup2\n      mstore\n      0x20\n      add\n      0x00\n      keccak256\n        /* \"AstroToken.sol/astroToken.sol\":4138:4172  __allowances[msg.sender][_spender] */\n      0x00\n        /* \"AstroToken.sol/astroToken.sol\":4163:4171  _spender */\n      dup6\n        /* \"AstroToken.sol/astroToken.sol\":4138:4172  __allowances[msg.sender][_spender] */\n      0xffffffffffffffffffffffffffffffffffffffff\n      and\n      0xffffffffffffffffffffffffffffffffffffffff\n      and\n      dup2\n      mstore\n      0x20\n      add\n      swap1\n      dup2\n      mstore\n      0x20\n      add\n      0x00\n      keccak256\n        /* \"AstroToken.sol/astroToken.sol\":4138:4181  __allowances[msg.sender][_spender] = _value */\n      dup2\n      swap1\n      sstore\n      pop\n        /* \"AstroToken.sol/astroToken.sol\":4218:4226  _spender */\n      dup3\n        /* \"AstroToken.sol/astroToken.sol\":4197:4235  Approval(msg.sender, _spender, _value) */\n      0xffffffffffffffffffffffffffffffffffffffff\n      and\n        /* \"AstroToken.sol/astroToken.sol\":4206:4216  msg.sender */\n      caller\n        /* \"AstroToken.sol/astroToken.sol\":4197:4235  Approval(msg.sender, _spender, _value) */\n      0xffffffffffffffffffffffffffffffffffffffff\n      and\n      0x8c5be1e5ebec7d5bd14f71427d1e84f3dd0314c0f7b2291e5b200ac8c7c3b925\n        /* \"AstroToken.sol/astroToken.sol\":4228:4234  _value */\n      dup5\n        /* \"AstroToken.sol/astroToken.sol\":4197:4235  Approval(msg.sender, _spender, _value) */\n      mload(0x40)\n      dup1\n      dup3\n      dup2\n      mstore\n      0x20\n      add\n      swap2\n      pop\n      pop\n      mload(0x40)\n      dup1\n      swap2\n      sub\n      swap1\n      log3\n        /* \"AstroToken.sol/astroToken.sol\":4253:4257  true */\n      0x01\n        /* \"AstroToken.sol/astroToken.sol\":4246:4257  return true */\n      swap1\n      pop\n        /* \"AstroToken.sol/astroToken.sol\":4038:4265  function approve(address _spender, uint _value) external override returns (bool success) {\r... */\n      swap3\n      swap2\n      pop\n      pop\n      jump\t// out\n        /* \"AstroToken.sol/astroToken.sol\":3682:3959  function isContract(address _addr) public view returns (bool) {\r... */\n    tag_25:\n        /* \"AstroToken.sol/astroToken.sol\":3738:3742  bool */\n      0x00\n        /* \"AstroToken.sol/astroToken.sol\":3755:3768  uint codeSize */\n      dup1\n        /* \"AstroToken.sol/astroToken.sol\":3860:3865  _addr */\n      dup3\n        /* \"AstroToken.sol/astroToken.sol\":3848:3866  extcodesize(_addr) */\n      extcodesize\n        /* \"AstroToken.sol/astroToken.sol\":3836:3866  codeSize := extcodesize(_addr) */\n      swap1\n      pop\n        /* \"AstroToken.sol/astroToken.sol\":3946:3947  0 */\n      0x00\n        /* \"AstroToken.sol/astroToken.sol\":3935:3943  codeSize */\n      dup2\n        /* \"AstroToken.sol/astroToken.sol\":3935:3947  codeSize > 0 */\n      gt\n        /* \"AstroToken.sol/astroToken.sol\":3928:3947  return codeSize > 0 */\n      swap2\n      pop\n      pop\n        /* \"AstroToken.sol/astroToken.sol\":3682:3959  function isContract(address _addr) public view returns (bool) {\r... */\n      swap2\n      swap1\n      pop\n      jump\t// out\n        /* \"AstroToken.sol/astroToken.sol\":1701:1820  function totalSupply() public view override returns (uint _totalSupply) {\r... */\n    tag_27:\n        /* \"AstroToken.sol/astroToken.sol\":1754:1771  uint _totalSupply */\n      0x00\n        /* \"AstroToken.sol/astroToken.sol\":1090:1115  1000000000000000000000000 */\n      0xd3c21bcecceda1000000\n        /* \"AstroToken.sol/astroToken.sol\":1784:1812  _totalSupply = __totalSupply */\n      swap1\n      pop\n        /* \"AstroToken.sol/astroToken.sol\":1701:1820  function totalSupply() public view override returns (uint _totalSupply) {\r... */\n      swap1\n      jump\t// out\n        /* \"AstroToken.sol/astroToken.sol\":2987:3508  function transferFrom(address _from, address _to, uint _value) public override returns (bool success) {\r... */\n    tag_30:\n        /* \"AstroToken.sol/astroToken.sol\":3075:3087  bool success */\n      0x00\n        /* \"AstroToken.sol/astroToken.sol\":3138:3139  0 */\n      dup1\n        /* \"AstroToken.sol/astroToken.sol\":3104:3116  __allowances */\n      0x01\n        /* \"AstroToken.sol/astroToken.sol\":3104:3123  __allowances[_from] */\n      0x00\n        /* \"AstroToken.sol/astroToken.sol\":3117:3122  _from */\n      dup7\n        /* \"AstroToken.sol/astroToken.sol\":3104:3123  __allowances[_from] */\n      0xffffffffffffffffffffffffffffffffffffffff\n      and\n      0xffffffffffffffffffffffffffffffffffffffff\n      and\n      dup2\n      mstore\n      0x20\n      add\n      swap1\n      dup2\n      mstore\n      0x20\n      add\n      0x00\n      keccak256\n        /* \"AstroToken.sol/astroToken.sol\":3104:3135  __allowances[_from][msg.sender] */\n      0x00\n        /* \"AstroToken.sol/astroToken.sol\":3124:3134  msg.sender */\n      caller\n        /* \"AstroToken.sol/astroToken.sol\":3104:3135  __allowances[_from][msg.sender] */\n      0xffffffffffffffffffffffffffffffffffffffff\n      and\n      0xffffffffffffffffffffffffffffffffffffffff\n      and\n      dup2\n      mstore\n      0x20\n      add\n      swap1\n      dup2\n      mstore\n      0x20\n      add\n      0x00\n      keccak256\n      sload\n        /* \"AstroToken.sol/astroToken.sol\":3104:3139  __allowances[_from][msg.sender] > 0 */\n      gt\n        /* \"AstroToken.sol/astroToken.sol\":3104:3165  __allowances[_from][msg.sender] > 0 &&\r... */\n      dup1\n      iszero\n      tag_52\n      jumpi\n      pop\n        /* \"AstroToken.sol/astroToken.sol\":3164:3165  0 */\n      0x00\n        /* \"AstroToken.sol/astroToken.sol\":3156:3162  _value */\n      dup3\n        /* \"AstroToken.sol/astroToken.sol\":3156:3165  _value >0 */\n      gt\n        /* \"AstroToken.sol/astroToken.sol\":3104:3165  __allowances[_from][msg.sender] > 0 &&\r... */\n    tag_52:\n        /* \"AstroToken.sol/astroToken.sol\":3104:3223  __allowances[_from][msg.sender] > 0 &&\r... */\n      dup1\n      iszero\n      tag_53\n      jumpi\n      pop\n        /* \"AstroToken.sol/astroToken.sol\":3217:3223  _value */\n      dup2\n        /* \"AstroToken.sol/astroToken.sol\":3182:3194  __allowances */\n      0x01\n        /* \"AstroToken.sol/astroToken.sol\":3182:3201  __allowances[_from] */\n      0x00\n        /* \"AstroToken.sol/astroToken.sol\":3195:3200  _from */\n      dup7\n        /* \"AstroToken.sol/astroToken.sol\":3182:3201  __allowances[_from] */\n      0xffffffffffffffffffffffffffffffffffffffff\n      and\n      0xffffffffffffffffffffffffffffffffffffffff\n      and\n      dup2\n      mstore\n      0x20\n      add\n      swap1\n      dup2\n      mstore\n      0x20\n      add\n      0x00\n      keccak256\n        /* \"AstroToken.sol/astroToken.sol\":3182:3213  __allowances[_from][msg.sender] */\n      0x00\n        /* \"AstroToken.sol/astroToken.sol\":3202:3212  msg.sender */\n      caller\n        /* \"AstroToken.sol/astroToken.sol\":3182:3213  __allowances[_from][msg.sender] */\n      0xffffffffffffffffffffffffffffffffffffffff\n      and\n      0xffffffffffffffffffffffffffffffffffffffff\n      and\n      dup2\n      mstore\n      0x20\n      add\n      swap1\n      dup2\n      mstore\n      0x20\n      add\n      0x00\n      keccak256\n      sload\n        /* \"AstroToken.sol/astroToken.sol\":3182:3223  __allowances[_from][msg.sender] >= _value */\n      lt\n      iszero\n        /* \"AstroToken.sol/astroToken.sol\":3104:3223  __allowances[_from][msg.sender] > 0 &&\r... */\n    tag_53:\n        /* \"AstroToken.sol/astroToken.sol\":3104:3306  __allowances[_from][msg.sender] > 0 &&\r... */\n      dup1\n      iszero\n      tag_54\n      jumpi\n      pop\n        /* \"AstroToken.sol/astroToken.sol\":3291:3306  isContract(_to) */\n      tag_55\n        /* \"AstroToken.sol/astroToken.sol\":3302:3305  _to */\n      dup4\n        /* \"AstroToken.sol/astroToken.sol\":3291:3301  isContract */\n      tag_25\n        /* \"AstroToken.sol/astroToken.sol\":3291:3306  isContract(_to) */\n      jump\t// in\n    tag_55:\n        /* \"AstroToken.sol/astroToken.sol\":3290:3306  !isContract(_to) */\n      iszero\n        /* \"AstroToken.sol/astroToken.sol\":3104:3306  __allowances[_from][msg.sender] > 0 &&\r... */\n    tag_54:\n        /* \"AstroToken.sol/astroToken.sol\":3100:3478  if (__allowances[_from][msg.sender] > 0 &&\r... */\n      iszero\n      tag_56\n      jumpi\n        /* \"AstroToken.sol/astroToken.sol\":3345:3351  _value */\n      dup2\n        /* \"AstroToken.sol/astroToken.sol\":3323:3334  __balanceOf */\n      0x00\n        /* \"AstroToken.sol/astroToken.sol\":3323:3341  __balanceOf[_from] */\n      dup1\n        /* \"AstroToken.sol/astroToken.sol\":3335:3340  _from */\n      dup7\n        /* \"AstroToken.sol/astroToken.sol\":3323:3341  __balanceOf[_from] */\n      0xffffffffffffffffffffffffffffffffffffffff\n      and\n      0xffffffffffffffffffffffffffffffffffffffff\n      and\n      dup2\n      mstore\n      0x20\n      add\n      swap1\n      dup2\n      mstore\n      0x20\n      add\n      0x00\n      keccak256\n      0x00\n        /* \"AstroToken.sol/astroToken.sol\":3323:3351  __balanceOf[_from] -= _value */\n      dup3\n      dup3\n      sload\n      sub\n      swap3\n      pop\n      pop\n      dup2\n      swap1\n      sstore\n      pop\n        /* \"AstroToken.sol/astroToken.sol\":3386:3392  _value */\n      dup2\n        /* \"AstroToken.sol/astroToken.sol\":3366:3377  __balanceOf */\n      0x00\n        /* \"AstroToken.sol/astroToken.sol\":3366:3382  __balanceOf[_to] */\n      dup1\n        /* \"AstroToken.sol/astroToken.sol\":3378:3381  _to */\n      dup6\n        /* \"AstroToken.sol/astroToken.sol\":3366:3382  __balanceOf[_to] */\n      0xffffffffffffffffffffffffffffffffffffffff\n      and\n      0xffffffffffffffffffffffffffffffffffffffff\n      and\n      dup2\n      mstore\n      0x20\n      add\n      swap1\n      dup2\n      mstore\n      0x20\n      add\n      0x00\n      keccak256\n      0x00\n        /* \"AstroToken.sol/astroToken.sol\":3366:3392  __balanceOf[_to] += _value */\n      dup3\n      dup3\n      sload\n      add\n      swap3\n      pop\n      pop\n      dup2\n      swap1\n      sstore\n      pop\n        /* \"AstroToken.sol/astroToken.sol\":3428:3431  _to */\n      dup3\n        /* \"AstroToken.sol/astroToken.sol\":3412:3440  Transfer(_from, _to, _value) */\n      0xffffffffffffffffffffffffffffffffffffffff\n      and\n        /* \"AstroToken.sol/astroToken.sol\":3421:3426  _from */\n      dup5\n        /* \"AstroToken.sol/astroToken.sol\":3412:3440  Transfer(_from, _to, _value) */\n      0xffffffffffffffffffffffffffffffffffffffff\n      and\n      0xddf252ad1be2c89b69c2b068fc378daa952ba7f163c4a11628f55a4df523b3ef\n        /* \"AstroToken.sol/astroToken.sol\":3433:3439  _value */\n      dup5\n        /* \"AstroToken.sol/astroToken.sol\":3412:3440  Transfer(_from, _to, _value) */\n      mload(0x40)\n      dup1\n      dup3\n      dup2\n      mstore\n      0x20\n      add\n      swap2\n      pop\n      pop\n      mload(0x40)\n      dup1\n      swap2\n      sub\n      swap1\n      log3\n        /* \"AstroToken.sol/astroToken.sol\":3462:3466  true */\n      0x01\n        /* \"AstroToken.sol/astroToken.sol\":3455:3466  return true */\n      swap1\n      pop\n      jump(tag_51)\n        /* \"AstroToken.sol/astroToken.sol\":3100:3478  if (__allowances[_from][msg.sender] > 0 &&\r... */\n    tag_56:\n        /* \"AstroToken.sol/astroToken.sol\":3495:3500  false */\n      0x00\n        /* \"AstroToken.sol/astroToken.sol\":3488:3500  return false */\n      swap1\n      pop\n        /* \"AstroToken.sol/astroToken.sol\":2987:3508  function transferFrom(address _from, address _to, uint _value) public override returns (bool success) {\r... */\n    tag_51:\n      swap4\n      swap3\n      pop\n      pop\n      pop\n      jump\t// out\n        /* \"AstroToken.sol/astroToken.sol\":981:1016  uint8 public constant decimals = 18 */\n    tag_32:\n        /* \"AstroToken.sol/astroToken.sol\":1014:1016  18 */\n      0x12\n        /* \"AstroToken.sol/astroToken.sol\":981:1016  uint8 public constant decimals = 18 */\n      dup2\n      jump\t// out\n        /* \"AstroToken.sol/astroToken.sol\":1877:1999  function balanceOf(address _addr) public view override returns (uint balance) {\r... */\n    tag_35:\n        /* \"AstroToken.sol/astroToken.sol\":1941:1953  uint balance */\n      0x00\n        /* \"AstroToken.sol/astroToken.sol\":1973:1984  __balanceOf */\n      dup1\n        /* \"AstroToken.sol/astroToken.sol\":1973:1991  __balanceOf[_addr] */\n      0x00\n        /* \"AstroToken.sol/astroToken.sol\":1985:1990  _addr */\n      dup4\n        /* \"AstroToken.sol/astroToken.sol\":1973:1991  __balanceOf[_addr] */\n      0xffffffffffffffffffffffffffffffffffffffff\n      and\n      0xffffffffffffffffffffffffffffffffffffffff\n      and\n      dup2\n      mstore\n      0x20\n      add\n      swap1\n      dup2\n      mstore\n      0x20\n      add\n      0x00\n      keccak256\n      sload\n        /* \"AstroToken.sol/astroToken.sol\":1966:1991  return __balanceOf[_addr] */\n      swap1\n      pop\n        /* \"AstroToken.sol/astroToken.sol\":1877:1999  function balanceOf(address _addr) public view override returns (uint balance) {\r... */\n      swap2\n      swap1\n      pop\n      jump\t// out\n        /* \"AstroToken.sol/astroToken.sol\":887:924  string public constant symbol = \"ATK\" */\n    tag_37:\n      mload(0x40)\n      dup1\n      0x40\n      add\n      0x40\n      mstore\n      dup1\n      0x03\n      dup2\n      mstore\n      0x20\n      add\n      0x41544b0000000000000000000000000000000000000000000000000000000000\n      dup2\n      mstore\n      pop\n      dup2\n      jump\t// out\n        /* \"AstroToken.sol/astroToken.sol\":2254:2609  function transfer(address _to, uint _value) public override returns (bool success) {\r... */\n    tag_44:\n        /* \"AstroToken.sol/astroToken.sol\":2323:2335  bool success */\n      0x00\n        /* \"AstroToken.sol/astroToken.sol\":2361:2362  0 */\n      dup1\n        /* \"AstroToken.sol/astroToken.sol\":2352:2358  _value */\n      dup3\n        /* \"AstroToken.sol/astroToken.sol\":2352:2362  _value > 0 */\n      gt\n        /* \"AstroToken.sol/astroToken.sol\":2352:2397  _value > 0 && _value <= balanceOf(msg.sender) */\n      dup1\n      iszero\n      tag_59\n      jumpi\n      pop\n        /* \"AstroToken.sol/astroToken.sol\":2376:2397  balanceOf(msg.sender) */\n      tag_60\n        /* \"AstroToken.sol/astroToken.sol\":2386:2396  msg.sender */\n      caller\n        /* \"AstroToken.sol/astroToken.sol\":2376:2385  balanceOf */\n      tag_35\n        /* \"AstroToken.sol/astroToken.sol\":2376:2397  balanceOf(msg.sender) */\n      jump\t// in\n    tag_60:\n        /* \"AstroToken.sol/astroToken.sol\":2366:2372  _value */\n      dup3\n        /* \"AstroToken.sol/astroToken.sol\":2366:2397  _value <= balanceOf(msg.sender) */\n      gt\n      iszero\n        /* \"AstroToken.sol/astroToken.sol\":2352:2397  _value > 0 && _value <= balanceOf(msg.sender) */\n    tag_59:\n        /* \"AstroToken.sol/astroToken.sol\":2348:2579  if (_value > 0 && _value <= balanceOf(msg.sender)) {\r... */\n      iszero\n      tag_61\n      jumpi\n        /* \"AstroToken.sol/astroToken.sol\":2441:2447  _value */\n      dup2\n        /* \"AstroToken.sol/astroToken.sol\":2414:2425  __balanceOf */\n      0x00\n        /* \"AstroToken.sol/astroToken.sol\":2414:2437  __balanceOf[msg.sender] */\n      dup1\n        /* \"AstroToken.sol/astroToken.sol\":2426:2436  msg.sender */\n      caller\n        /* \"AstroToken.sol/astroToken.sol\":2414:2437  __balanceOf[msg.sender] */\n      0xffffffffffffffffffffffffffffffffffffffff\n      and\n      0xffffffffffffffffffffffffffffffffffffffff\n      and\n      dup2\n      mstore\n      0x20\n      add\n      swap1\n      dup2\n      mstore\n      0x20\n      add\n      0x00\n      keccak256\n      0x00\n        /* \"AstroToken.sol/astroToken.sol\":2414:2447  __balanceOf[msg.sender] -= _value */\n      dup3\n      dup3\n      sload\n      sub\n      swap3\n      pop\n      pop\n      dup2\n      swap1\n      sstore\n      pop\n        /* \"AstroToken.sol/astroToken.sol\":2482:2488  _value */\n      dup2\n        /* \"AstroToken.sol/astroToken.sol\":2462:2473  __balanceOf */\n      0x00\n        /* \"AstroToken.sol/astroToken.sol\":2462:2478  __balanceOf[_to] */\n      dup1\n        /* \"AstroToken.sol/astroToken.sol\":2474:2477  _to */\n      dup6\n        /* \"AstroToken.sol/astroToken.sol\":2462:2478  __balanceOf[_to] */\n      0xffffffffffffffffffffffffffffffffffffffff\n      and\n      0xffffffffffffffffffffffffffffffffffffffff\n      and\n      dup2\n      mstore\n      0x20\n      add\n      swap1\n      dup2\n      mstore\n      0x20\n      add\n      0x00\n      keccak256\n      0x00\n        /* \"AstroToken.sol/astroToken.sol\":2462:2488  __balanceOf[_to] += _value */\n      dup3\n      dup3\n      sload\n      add\n      swap3\n      pop\n      pop\n      dup2\n      swap1\n      sstore\n      pop\n        /* \"AstroToken.sol/astroToken.sol\":2529:2532  _to */\n      dup3\n        /* \"AstroToken.sol/astroToken.sol\":2508:2541  Transfer(msg.sender, _to, _value) */\n      0xffffffffffffffffffffffffffffffffffffffff\n      and\n        /* \"AstroToken.sol/astroToken.sol\":2517:2527  msg.sender */\n      caller\n        /* \"AstroToken.sol/astroToken.sol\":2508:2541  Transfer(msg.sender, _to, _value) */\n      0xffffffffffffffffffffffffffffffffffffffff\n      and\n      0xddf252ad1be2c89b69c2b068fc378daa952ba7f163c4a11628f55a4df523b3ef\n        /* \"AstroToken.sol/astroToken.sol\":2534:2540  _value */\n      dup5\n        /* \"AstroToken.sol/astroToken.sol\":2508:2541  Transfer(msg.sender, _to, _value) */\n      mload(0x40)\n      dup1\n      dup3\n      dup2\n      mstore\n      0x20\n      add\n      swap2\n      pop\n      pop\n      mload(0x40)\n      dup1\n      swap2\n      sub\n      swap1\n      log3\n        /* \"AstroToken.sol/astroToken.sol\":2563:2567  true */\n      0x01\n        /* \"AstroToken.sol/astroToken.sol\":2556:2567  return true */\n      swap1\n      pop\n      jump(tag_58)\n        /* \"AstroToken.sol/astroToken.sol\":2348:2579  if (_value > 0 && _value <= balanceOf(msg.sender)) {\r... */\n    tag_61:\n        /* \"AstroToken.sol/astroToken.sol\":2596:2601  false */\n      0x00\n        /* \"AstroToken.sol/astroToken.sol\":2589:2601  return false */\n      swap1\n      pop\n        /* \"AstroToken.sol/astroToken.sol\":2254:2609  function transfer(address _to, uint _value) public override returns (bool success) {\r... */\n    tag_58:\n      swap3\n      swap2\n      pop\n      pop\n      jump\t// out\n        /* \"AstroToken.sol/astroToken.sol\":4355:4512  function allowance(address _owner, address _spender) external override view returns (uint remaining) {\r... */\n    tag_47:\n        /* \"AstroToken.sol/astroToken.sol\":4440:4454  uint remaining */\n      0x00\n        /* \"AstroToken.sol/astroToken.sol\":4474:4486  __allowances */\n      0x01\n        /* \"AstroToken.sol/astroToken.sol\":4474:4494  __allowances[_owner] */\n      0x00\n        /* \"AstroToken.sol/astroToken.sol\":4487:4493  _owner */\n      dup5\n        /* \"AstroToken.sol/astroToken.sol\":4474:4494  __allowances[_owner] */\n      0xffffffffffffffffffffffffffffffffffffffff\n      and\n      0xffffffffffffffffffffffffffffffffffffffff\n      and\n      dup2\n      mstore\n      0x20\n      add\n      swap1\n      dup2\n      mstore\n      0x20\n      add\n      0x00\n      keccak256\n        /* \"AstroToken.sol/astroToken.sol\":4474:4504  __allowances[_owner][_spender] */\n      0x00\n        /* \"AstroToken.sol/astroToken.sol\":4495:4503  _spender */\n      dup4\n        /* \"AstroToken.sol/astroToken.sol\":4474:4504  __allowances[_owner][_spender] */\n      0xffffffffffffffffffffffffffffffffffffffff\n      and\n      0xffffffffffffffffffffffffffffffffffffffff\n      and\n      dup2\n      mstore\n      0x20\n      add\n      swap1\n      dup2\n      mstore\n      0x20\n      add\n      0x00\n      keccak256\n      sload\n        /* \"AstroToken.sol/astroToken.sol\":4467:4504  return __allowances[_owner][_spender] */\n      swap1\n      pop\n        /* \"AstroToken.sol/astroToken.sol\":4355:4512  function allowance(address _owner, address _spender) external override view returns (uint remaining) {\r... */\n      swap3\n      swap2\n      pop\n      pop\n      jump\t// out\n\n    auxdata: 0xa2646970667358221220c2387e33783e158426bdc77fbbea41135f88a744002678d1fc5b19bd543e273864736f6c634300060c0033\n}\n",
				"bytecode": {
					"linkReferences": {},
					"object": "608060405234801561001057600080fd5b5069d3c21bcecceda10000006000803373ffffffffffffffffffffffffffffffffffffffff1673ffffffffffffffffffffffffffffffffffffffff16815260200190815260200160002081905550610a5e8061006d6000396000f3fe608060405234801561001057600080fd5b506004361061009e5760003560e01c8063313ce56711610066578063313ce5671461028657806370a08231146102a757806395d89b41146102ff578063a9059cbb14610382578063dd62ed3e146103e65761009e565b806306fdde03146100a3578063095ea7b314610126578063162790551461018a57806318160ddd146101e457806323b872dd14610202575b600080fd5b6100ab61045e565b6040518080602001828103825283818151815260200191508051906020019080838360005b838110156100eb5780820151818401526020810190506100d0565b50505050905090810190601f1680156101185780820380516001836020036101000a031916815260200191505b509250505060405180910390f35b6101726004803603604081101561013c57600080fd5b81019080803573ffffffffffffffffffffffffffffffffffffffff16906020019092919080359060200190929190505050610497565b60405180821515815260200191505060405180910390f35b6101cc600480360360208110156101a057600080fd5b81019080803573ffffffffffffffffffffffffffffffffffffffff169060200190929190505050610589565b60405180821515815260200191505060405180910390f35b6101ec61059c565b6040518082815260200191505060405180910390f35b61026e6004803603606081101561021857600080fd5b81019080803573ffffffffffffffffffffffffffffffffffffffff169060200190929190803573ffffffffffffffffffffffffffffffffffffffff169060200190929190803590602001909291905050506105ae565b60405180821515815260200191505060405180910390f35b61028e6107ec565b604051808260ff16815260200191505060405180910390f35b6102e9600480360360208110156102bd57600080fd5b81019080803573ffffffffffffffffffffffffffffffffffffffff1690602001909291905050506107f1565b6040518082815260200191505060405180910390f35b610307610839565b6040518080602001828103825283818151815260200191508051906020019080838360005b8381101561034757808201518184015260208101905061032c565b50505050905090810190601f1680156103745780820380516001836020036101000a031916815260200191505b509250505060405180910390f35b6103ce6004803603604081101561039857600080fd5b81019080803573ffffffffffffffffffffffffffffffffffffffff16906020019092919080359060200190929190505050610872565b60405180821515815260200191505060405180910390f35b610448600480360360408110156103fc57600080fd5b81019080803573ffffffffffffffffffffffffffffffffffffffff169060200190929190803573ffffffffffffffffffffffffffffffffffffffff1690602001909291905050506109a1565b6040518082815260200191505060405180910390f35b6040518060400160405280600b81526020017f417374726f20546f6b656e00000000000000000000000000000000000000000081525081565b600081600160003373ffffffffffffffffffffffffffffffffffffffff1673ffffffffffffffffffffffffffffffffffffffff16815260200190815260200160002060008573ffffffffffffffffffffffffffffffffffffffff1673ffffffffffffffffffffffffffffffffffffffff168152602001908152602001600020819055508273ffffffffffffffffffffffffffffffffffffffff163373ffffffffffffffffffffffffffffffffffffffff167f8c5be1e5ebec7d5bd14f71427d1e84f3dd0314c0f7b2291e5b200ac8c7c3b925846040518082815260200191505060405180910390a36001905092915050565b600080823b905060008111915050919050565b600069d3c21bcecceda1000000905090565b600080600160008673ffffffffffffffffffffffffffffffffffffffff1673ffffffffffffffffffffffffffffffffffffffff16815260200190815260200160002060003373ffffffffffffffffffffffffffffffffffffffff1673ffffffffffffffffffffffffffffffffffffffff1681526020019081526020016000205411801561063b5750600082115b80156106c3575081600160008673ffffffffffffffffffffffffffffffffffffffff1673ffffffffffffffffffffffffffffffffffffffff16815260200190815260200160002060003373ffffffffffffffffffffffffffffffffffffffff1673ffffffffffffffffffffffffffffffffffffffff1681526020019081526020016000205410155b80156106d557506106d383610589565b155b156107e057816000808673ffffffffffffffffffffffffffffffffffffffff1673ffffffffffffffffffffffffffffffffffffffff16815260200190815260200160002060008282540392505081905550816000808573ffffffffffffffffffffffffffffffffffffffff1673ffffffffffffffffffffffffffffffffffffffff168152602001908152602001600020600082825401925050819055508273ffffffffffffffffffffffffffffffffffffffff168473ffffffffffffffffffffffffffffffffffffffff167fddf252ad1be2c89b69c2b068fc378daa952ba7f163c4a11628f55a4df523b3ef846040518082815260200191505060405180910390a3600190506107e5565b600090505b9392505050565b601281565b60008060008373ffffffffffffffffffffffffffffffffffffffff1673ffffffffffffffffffffffffffffffffffffffff168152602001908152602001600020549050919050565b6040518060400160405280600381526020017f41544b000000000000000000000000000000000000000000000000000000000081525081565b6000808211801561088b5750610887336107f1565b8211155b1561099657816000803373ffffffffffffffffffffffffffffffffffffffff1673ffffffffffffffffffffffffffffffffffffffff16815260200190815260200160002060008282540392505081905550816000808573ffffffffffffffffffffffffffffffffffffffff1673ffffffffffffffffffffffffffffffffffffffff168152602001908152602001600020600082825401925050819055508273ffffffffffffffffffffffffffffffffffffffff163373ffffffffffffffffffffffffffffffffffffffff167fddf252ad1be2c89b69c2b068fc378daa952ba7f163c4a11628f55a4df523b3ef846040518082815260200191505060405180910390a36001905061099b565b600090505b92915050565b6000600160008473ffffffffffffffffffffffffffffffffffffffff1673ffffffffffffffffffffffffffffffffffffffff16815260200190815260200160002060008373ffffffffffffffffffffffffffffffffffffffff1673ffffffffffffffffffffffffffffffffffffffff1681526020019081526020016000205490509291505056fea2646970667358221220c2387e33783e158426bdc77fbbea41135f88a744002678d1fc5b19bd543e273864736f6c634300060c0033",
					"opcodes": "PUSH1 0x80 PUSH1 0x40 MSTORE CALLVALUE DUP1 ISZERO PUSH2 0x10 JUMPI PUSH1 0x0 DUP1 REVERT JUMPDEST POP PUSH10 0xD3C21BCECCEDA1000000 PUSH1 0x0 DUP1 CALLER PUSH20 0xFFFFFFFFFFFFFFFFFFFFFFFFFFFFFFFFFFFFFFFF AND PUSH20 0xFFFFFFFFFFFFFFFFFFFFFFFFFFFFFFFFFFFFFFFF AND DUP2 MSTORE PUSH1 0x20 ADD SWAP1 DUP2 MSTORE PUSH1 0x20 ADD PUSH1 0x0 KECCAK256 DUP2 SWAP1 SSTORE POP PUSH2 0xA5E DUP1 PUSH2 0x6D PUSH1 0x0 CODECOPY PUSH1 0x0 RETURN INVALID PUSH1 0x80 PUSH1 0x40 MSTORE CALLVALUE DUP1 ISZERO PUSH2 0x10 JUMPI PUSH1 0x0 DUP1 REVERT JUMPDEST POP PUSH1 0x4 CALLDATASIZE LT PUSH2 0x9E JUMPI PUSH1 0x0 CALLDATALOAD PUSH1 0xE0 SHR DUP1 PUSH4 0x313CE567 GT PUSH2 0x66 JUMPI DUP1 PUSH4 0x313CE567 EQ PUSH2 0x286 JUMPI DUP1 PUSH4 0x70A08231 EQ PUSH2 0x2A7 JUMPI DUP1 PUSH4 0x95D89B41 EQ PUSH2 0x2FF JUMPI DUP1 PUSH4 0xA9059CBB EQ PUSH2 0x382 JUMPI DUP1 PUSH4 0xDD62ED3E EQ PUSH2 0x3E6 JUMPI PUSH2 0x9E JUMP JUMPDEST DUP1 PUSH4 0x6FDDE03 EQ PUSH2 0xA3 JUMPI DUP1 PUSH4 0x95EA7B3 EQ PUSH2 0x126 JUMPI DUP1 PUSH4 0x16279055 EQ PUSH2 0x18A JUMPI DUP1 PUSH4 0x18160DDD EQ PUSH2 0x1E4 JUMPI DUP1 PUSH4 0x23B872DD EQ PUSH2 0x202 JUMPI JUMPDEST PUSH1 0x0 DUP1 REVERT JUMPDEST PUSH2 0xAB PUSH2 0x45E JUMP JUMPDEST PUSH1 0x40 MLOAD DUP1 DUP1 PUSH1 0x20 ADD DUP3 DUP2 SUB DUP3 MSTORE DUP4 DUP2 DUP2 MLOAD DUP2 MSTORE PUSH1 0x20 ADD SWAP2 POP DUP1 MLOAD SWAP1 PUSH1 0x20 ADD SWAP1 DUP1 DUP4 DUP4 PUSH1 0x0 JUMPDEST DUP4 DUP2 LT ISZERO PUSH2 0xEB JUMPI DUP1 DUP3 ADD MLOAD DUP2 DUP5 ADD MSTORE PUSH1 0x20 DUP2 ADD SWAP1 POP PUSH2 0xD0 JUMP JUMPDEST POP POP POP POP SWAP1 POP SWAP1 DUP2 ADD SWAP1 PUSH1 0x1F AND DUP1 ISZERO PUSH2 0x118 JUMPI DUP1 DUP3 SUB DUP1 MLOAD PUSH1 0x1 DUP4 PUSH1 0x20 SUB PUSH2 0x100 EXP SUB NOT AND DUP2 MSTORE PUSH1 0x20 ADD SWAP2 POP JUMPDEST POP SWAP3 POP POP POP PUSH1 0x40 MLOAD DUP1 SWAP2 SUB SWAP1 RETURN JUMPDEST PUSH2 0x172 PUSH1 0x4 DUP1 CALLDATASIZE SUB PUSH1 0x40 DUP2 LT ISZERO PUSH2 0x13C JUMPI PUSH1 0x0 DUP1 REVERT JUMPDEST DUP2 ADD SWAP1 DUP1 DUP1 CALLDATALOAD PUSH20 0xFFFFFFFFFFFFFFFFFFFFFFFFFFFFFFFFFFFFFFFF AND SWAP1 PUSH1 0x20 ADD SWAP1 SWAP3 SWAP2 SWAP1 DUP1 CALLDATALOAD SWAP1 PUSH1 0x20 ADD SWAP1 SWAP3 SWAP2 SWAP1 POP POP POP PUSH2 0x497 JUMP JUMPDEST PUSH1 0x40 MLOAD DUP1 DUP3 ISZERO ISZERO DUP2 MSTORE PUSH1 0x20 ADD SWAP2 POP POP PUSH1 0x40 MLOAD DUP1 SWAP2 SUB SWAP1 RETURN JUMPDEST PUSH2 0x1CC PUSH1 0x4 DUP1 CALLDATASIZE SUB PUSH1 0x20 DUP2 LT ISZERO PUSH2 0x1A0 JUMPI PUSH1 0x0 DUP1 REVERT JUMPDEST DUP2 ADD SWAP1 DUP1 DUP1 CALLDATALOAD PUSH20 0xFFFFFFFFFFFFFFFFFFFFFFFFFFFFFFFFFFFFFFFF AND SWAP1 PUSH1 0x20 ADD SWAP1 SWAP3 SWAP2 SWAP1 POP POP POP PUSH2 0x589 JUMP JUMPDEST PUSH1 0x40 MLOAD DUP1 DUP3 ISZERO ISZERO DUP2 MSTORE PUSH1 0x20 ADD SWAP2 POP POP PUSH1 0x40 MLOAD DUP1 SWAP2 SUB SWAP1 RETURN JUMPDEST PUSH2 0x1EC PUSH2 0x59C JUMP JUMPDEST PUSH1 0x40 MLOAD DUP1 DUP3 DUP2 MSTORE PUSH1 0x20 ADD SWAP2 POP POP PUSH1 0x40 MLOAD DUP1 SWAP2 SUB SWAP1 RETURN JUMPDEST PUSH2 0x26E PUSH1 0x4 DUP1 CALLDATASIZE SUB PUSH1 0x60 DUP2 LT ISZERO PUSH2 0x218 JUMPI PUSH1 0x0 DUP1 REVERT JUMPDEST DUP2 ADD SWAP1 DUP1 DUP1 CALLDATALOAD PUSH20 0xFFFFFFFFFFFFFFFFFFFFFFFFFFFFFFFFFFFFFFFF AND SWAP1 PUSH1 0x20 ADD SWAP1 SWAP3 SWAP2 SWAP1 DUP1 CALLDATALOAD PUSH20 0xFFFFFFFFFFFFFFFFFFFFFFFFFFFFFFFFFFFFFFFF AND SWAP1 PUSH1 0x20 ADD SWAP1 SWAP3 SWAP2 SWAP1 DUP1 CALLDATALOAD SWAP1 PUSH1 0x20 ADD SWAP1 SWAP3 SWAP2 SWAP1 POP POP POP PUSH2 0x5AE JUMP JUMPDEST PUSH1 0x40 MLOAD DUP1 DUP3 ISZERO ISZERO DUP2 MSTORE PUSH1 0x20 ADD SWAP2 POP POP PUSH1 0x40 MLOAD DUP1 SWAP2 SUB SWAP1 RETURN JUMPDEST PUSH2 0x28E PUSH2 0x7EC JUMP JUMPDEST PUSH1 0x40 MLOAD DUP1 DUP3 PUSH1 0xFF AND DUP2 MSTORE PUSH1 0x20 ADD SWAP2 POP POP PUSH1 0x40 MLOAD DUP1 SWAP2 SUB SWAP1 RETURN JUMPDEST PUSH2 0x2E9 PUSH1 0x4 DUP1 CALLDATASIZE SUB PUSH1 0x20 DUP2 LT ISZERO PUSH2 0x2BD JUMPI PUSH1 0x0 DUP1 REVERT JUMPDEST DUP2 ADD SWAP1 DUP1 DUP1 CALLDATALOAD PUSH20 0xFFFFFFFFFFFFFFFFFFFFFFFFFFFFFFFFFFFFFFFF AND SWAP1 PUSH1 0x20 ADD SWAP1 SWAP3 SWAP2 SWAP1 POP POP POP PUSH2 0x7F1 JUMP JUMPDEST PUSH1 0x40 MLOAD DUP1 DUP3 DUP2 MSTORE PUSH1 0x20 ADD SWAP2 POP POP PUSH1 0x40 MLOAD DUP1 SWAP2 SUB SWAP1 RETURN JUMPDEST PUSH2 0x307 PUSH2 0x839 JUMP JUMPDEST PUSH1 0x40 MLOAD DUP1 DUP1 PUSH1 0x20 ADD DUP3 DUP2 SUB DUP3 MSTORE DUP4 DUP2 DUP2 MLOAD DUP2 MSTORE PUSH1 0x20 ADD SWAP2 POP DUP1 MLOAD SWAP1 PUSH1 0x20 ADD SWAP1 DUP1 DUP4 DUP4 PUSH1 0x0 JUMPDEST DUP4 DUP2 LT ISZERO PUSH2 0x347 JUMPI DUP1 DUP3 ADD MLOAD DUP2 DUP5 ADD MSTORE PUSH1 0x20 DUP2 ADD SWAP1 POP PUSH2 0x32C JUMP JUMPDEST POP POP POP POP SWAP1 POP SWAP1 DUP2 ADD SWAP1 PUSH1 0x1F AND DUP1 ISZERO PUSH2 0x374 JUMPI DUP1 DUP3 SUB DUP1 MLOAD PUSH1 0x1 DUP4 PUSH1 0x20 SUB PUSH2 0x100 EXP SUB NOT AND DUP2 MSTORE PUSH1 0x20 ADD SWAP2 POP JUMPDEST POP SWAP3 POP POP POP PUSH1 0x40 MLOAD DUP1 SWAP2 SUB SWAP1 RETURN JUMPDEST PUSH2 0x3CE PUSH1 0x4 DUP1 CALLDATASIZE SUB PUSH1 0x40 DUP2 LT ISZERO PUSH2 0x398 JUMPI PUSH1 0x0 DUP1 REVERT JUMPDEST DUP2 ADD SWAP1 DUP1 DUP1 CALLDATALOAD PUSH20 0xFFFFFFFFFFFFFFFFFFFFFFFFFFFFFFFFFFFFFFFF AND SWAP1 PUSH1 0x20 ADD SWAP1 SWAP3 SWAP2 SWAP1 DUP1 CALLDATALOAD SWAP1 PUSH1 0x20 ADD SWAP1 SWAP3 SWAP2 SWAP1 POP POP POP PUSH2 0x872 JUMP JUMPDEST PUSH1 0x40 MLOAD DUP1 DUP3 ISZERO ISZERO DUP2 MSTORE PUSH1 0x20 ADD SWAP2 POP POP PUSH1 0x40 MLOAD DUP1 SWAP2 SUB SWAP1 RETURN JUMPDEST PUSH2 0x448 PUSH1 0x4 DUP1 CALLDATASIZE SUB PUSH1 0x40 DUP2 LT ISZERO PUSH2 0x3FC JUMPI PUSH1 0x0 DUP1 REVERT JUMPDEST DUP2 ADD SWAP1 DUP1 DUP1 CALLDATALOAD PUSH20 0xFFFFFFFFFFFFFFFFFFFFFFFFFFFFFFFFFFFFFFFF AND SWAP1 PUSH1 0x20 ADD SWAP1 SWAP3 SWAP2 SWAP1 DUP1 CALLDATALOAD PUSH20 0xFFFFFFFFFFFFFFFFFFFFFFFFFFFFFFFFFFFFFFFF AND SWAP1 PUSH1 0x20 ADD SWAP1 SWAP3 SWAP2 SWAP1 POP POP POP PUSH2 0x9A1 JUMP JUMPDEST PUSH1 0x40 MLOAD DUP1 DUP3 DUP2 MSTORE PUSH1 0x20 ADD SWAP2 POP POP PUSH1 0x40 MLOAD DUP1 SWAP2 SUB SWAP1 RETURN JUMPDEST PUSH1 0x40 MLOAD DUP1 PUSH1 0x40 ADD PUSH1 0x40 MSTORE DUP1 PUSH1 0xB DUP2 MSTORE PUSH1 0x20 ADD PUSH32 0x417374726F20546F6B656E000000000000000000000000000000000000000000 DUP2 MSTORE POP DUP2 JUMP JUMPDEST PUSH1 0x0 DUP2 PUSH1 0x1 PUSH1 0x0 CALLER PUSH20 0xFFFFFFFFFFFFFFFFFFFFFFFFFFFFFFFFFFFFFFFF AND PUSH20 0xFFFFFFFFFFFFFFFFFFFFFFFFFFFFFFFFFFFFFFFF AND DUP2 MSTORE PUSH1 0x20 ADD SWAP1 DUP2 MSTORE PUSH1 0x20 ADD PUSH1 0x0 KECCAK256 PUSH1 0x0 DUP6 PUSH20 0xFFFFFFFFFFFFFFFFFFFFFFFFFFFFFFFFFFFFFFFF AND PUSH20 0xFFFFFFFFFFFFFFFFFFFFFFFFFFFFFFFFFFFFFFFF AND DUP2 MSTORE PUSH1 0x20 ADD SWAP1 DUP2 MSTORE PUSH1 0x20 ADD PUSH1 0x0 KECCAK256 DUP2 SWAP1 SSTORE POP DUP3 PUSH20 0xFFFFFFFFFFFFFFFFFFFFFFFFFFFFFFFFFFFFFFFF AND CALLER PUSH20 0xFFFFFFFFFFFFFFFFFFFFFFFFFFFFFFFFFFFFFFFF AND PUSH32 0x8C5BE1E5EBEC7D5BD14F71427D1E84F3DD0314C0F7B2291E5B200AC8C7C3B925 DUP5 PUSH1 0x40 MLOAD DUP1 DUP3 DUP2 MSTORE PUSH1 0x20 ADD SWAP2 POP POP PUSH1 0x40 MLOAD DUP1 SWAP2 SUB SWAP1 LOG3 PUSH1 0x1 SWAP1 POP SWAP3 SWAP2 POP POP JUMP JUMPDEST PUSH1 0x0 DUP1 DUP3 EXTCODESIZE SWAP1 POP PUSH1 0x0 DUP2 GT SWAP2 POP POP SWAP2 SWAP1 POP JUMP JUMPDEST PUSH1 0x0 PUSH10 0xD3C21BCECCEDA1000000 SWAP1 POP SWAP1 JUMP JUMPDEST PUSH1 0x0 DUP1 PUSH1 0x1 PUSH1 0x0 DUP7 PUSH20 0xFFFFFFFFFFFFFFFFFFFFFFFFFFFFFFFFFFFFFFFF AND PUSH20 0xFFFFFFFFFFFFFFFFFFFFFFFFFFFFFFFFFFFFFFFF AND DUP2 MSTORE PUSH1 0x20 ADD SWAP1 DUP2 MSTORE PUSH1 0x20 ADD PUSH1 0x0 KECCAK256 PUSH1 0x0 CALLER PUSH20 0xFFFFFFFFFFFFFFFFFFFFFFFFFFFFFFFFFFFFFFFF AND PUSH20 0xFFFFFFFFFFFFFFFFFFFFFFFFFFFFFFFFFFFFFFFF AND DUP2 MSTORE PUSH1 0x20 ADD SWAP1 DUP2 MSTORE PUSH1 0x20 ADD PUSH1 0x0 KECCAK256 SLOAD GT DUP1 ISZERO PUSH2 0x63B JUMPI POP PUSH1 0x0 DUP3 GT JUMPDEST DUP1 ISZERO PUSH2 0x6C3 JUMPI POP DUP2 PUSH1 0x1 PUSH1 0x0 DUP7 PUSH20 0xFFFFFFFFFFFFFFFFFFFFFFFFFFFFFFFFFFFFFFFF AND PUSH20 0xFFFFFFFFFFFFFFFFFFFFFFFFFFFFFFFFFFFFFFFF AND DUP2 MSTORE PUSH1 0x20 ADD SWAP1 DUP2 MSTORE PUSH1 0x20 ADD PUSH1 0x0 KECCAK256 PUSH1 0x0 CALLER PUSH20 0xFFFFFFFFFFFFFFFFFFFFFFFFFFFFFFFFFFFFFFFF AND PUSH20 0xFFFFFFFFFFFFFFFFFFFFFFFFFFFFFFFFFFFFFFFF AND DUP2 MSTORE PUSH1 0x20 ADD SWAP1 DUP2 MSTORE PUSH1 0x20 ADD PUSH1 0x0 KECCAK256 SLOAD LT ISZERO JUMPDEST DUP1 ISZERO PUSH2 0x6D5 JUMPI POP PUSH2 0x6D3 DUP4 PUSH2 0x589 JUMP JUMPDEST ISZERO JUMPDEST ISZERO PUSH2 0x7E0 JUMPI DUP2 PUSH1 0x0 DUP1 DUP7 PUSH20 0xFFFFFFFFFFFFFFFFFFFFFFFFFFFFFFFFFFFFFFFF AND PUSH20 0xFFFFFFFFFFFFFFFFFFFFFFFFFFFFFFFFFFFFFFFF AND DUP2 MSTORE PUSH1 0x20 ADD SWAP1 DUP2 MSTORE PUSH1 0x20 ADD PUSH1 0x0 KECCAK256 PUSH1 0x0 DUP3 DUP3 SLOAD SUB SWAP3 POP POP DUP2 SWAP1 SSTORE POP DUP2 PUSH1 0x0 DUP1 DUP6 PUSH20 0xFFFFFFFFFFFFFFFFFFFFFFFFFFFFFFFFFFFFFFFF AND PUSH20 0xFFFFFFFFFFFFFFFFFFFFFFFFFFFFFFFFFFFFFFFF AND DUP2 MSTORE PUSH1 0x20 ADD SWAP1 DUP2 MSTORE PUSH1 0x20 ADD PUSH1 0x0 KECCAK256 PUSH1 0x0 DUP3 DUP3 SLOAD ADD SWAP3 POP POP DUP2 SWAP1 SSTORE POP DUP3 PUSH20 0xFFFFFFFFFFFFFFFFFFFFFFFFFFFFFFFFFFFFFFFF AND DUP5 PUSH20 0xFFFFFFFFFFFFFFFFFFFFFFFFFFFFFFFFFFFFFFFF AND PUSH32 0xDDF252AD1BE2C89B69C2B068FC378DAA952BA7F163C4A11628F55A4DF523B3EF DUP5 PUSH1 0x40 MLOAD DUP1 DUP3 DUP2 MSTORE PUSH1 0x20 ADD SWAP2 POP POP PUSH1 0x40 MLOAD DUP1 SWAP2 SUB SWAP1 LOG3 PUSH1 0x1 SWAP1 POP PUSH2 0x7E5 JUMP JUMPDEST PUSH1 0x0 SWAP1 POP JUMPDEST SWAP4 SWAP3 POP POP POP JUMP JUMPDEST PUSH1 0x12 DUP2 JUMP JUMPDEST PUSH1 0x0 DUP1 PUSH1 0x0 DUP4 PUSH20 0xFFFFFFFFFFFFFFFFFFFFFFFFFFFFFFFFFFFFFFFF AND PUSH20 0xFFFFFFFFFFFFFFFFFFFFFFFFFFFFFFFFFFFFFFFF AND DUP2 MSTORE PUSH1 0x20 ADD SWAP1 DUP2 MSTORE PUSH1 0x20 ADD PUSH1 0x0 KECCAK256 SLOAD SWAP1 POP SWAP2 SWAP1 POP JUMP JUMPDEST PUSH1 0x40 MLOAD DUP1 PUSH1 0x40 ADD PUSH1 0x40 MSTORE DUP1 PUSH1 0x3 DUP2 MSTORE PUSH1 0x20 ADD PUSH32 0x41544B0000000000000000000000000000000000000000000000000000000000 DUP2 MSTORE POP DUP2 JUMP JUMPDEST PUSH1 0x0 DUP1 DUP3 GT DUP1 ISZERO PUSH2 0x88B JUMPI POP PUSH2 0x887 CALLER PUSH2 0x7F1 JUMP JUMPDEST DUP3 GT ISZERO JUMPDEST ISZERO PUSH2 0x996 JUMPI DUP2 PUSH1 0x0 DUP1 CALLER PUSH20 0xFFFFFFFFFFFFFFFFFFFFFFFFFFFFFFFFFFFFFFFF AND PUSH20 0xFFFFFFFFFFFFFFFFFFFFFFFFFFFFFFFFFFFFFFFF AND DUP2 MSTORE PUSH1 0x20 ADD SWAP1 DUP2 MSTORE PUSH1 0x20 ADD PUSH1 0x0 KECCAK256 PUSH1 0x0 DUP3 DUP3 SLOAD SUB SWAP3 POP POP DUP2 SWAP1 SSTORE POP DUP2 PUSH1 0x0 DUP1 DUP6 PUSH20 0xFFFFFFFFFFFFFFFFFFFFFFFFFFFFFFFFFFFFFFFF AND PUSH20 0xFFFFFFFFFFFFFFFFFFFFFFFFFFFFFFFFFFFFFFFF AND DUP2 MSTORE PUSH1 0x20 ADD SWAP1 DUP2 MSTORE PUSH1 0x20 ADD PUSH1 0x0 KECCAK256 PUSH1 0x0 DUP3 DUP3 SLOAD ADD SWAP3 POP POP DUP2 SWAP1 SSTORE POP DUP3 PUSH20 0xFFFFFFFFFFFFFFFFFFFFFFFFFFFFFFFFFFFFFFFF AND CALLER PUSH20 0xFFFFFFFFFFFFFFFFFFFFFFFFFFFFFFFFFFFFFFFF AND PUSH32 0xDDF252AD1BE2C89B69C2B068FC378DAA952BA7F163C4A11628F55A4DF523B3EF DUP5 PUSH1 0x40 MLOAD DUP1 DUP3 DUP2 MSTORE PUSH1 0x20 ADD SWAP2 POP POP PUSH1 0x40 MLOAD DUP1 SWAP2 SUB SWAP1 LOG3 PUSH1 0x1 SWAP1 POP PUSH2 0x99B JUMP JUMPDEST PUSH1 0x0 SWAP1 POP JUMPDEST SWAP3 SWAP2 POP POP JUMP JUMPDEST PUSH1 0x0 PUSH1 0x1 PUSH1 0x0 DUP5 PUSH20 0xFFFFFFFFFFFFFFFFFFFFFFFFFFFFFFFFFFFFFFFF AND PUSH20 0xFFFFFFFFFFFFFFFFFFFFFFFFFFFFFFFFFFFFFFFF AND DUP2 MSTORE PUSH1 0x20 ADD SWAP1 DUP2 MSTORE PUSH1 0x20 ADD PUSH1 0x0 KECCAK256 PUSH1 0x0 DUP4 PUSH20 0xFFFFFFFFFFFFFFFFFFFFFFFFFFFFFFFFFFFFFFFF AND PUSH20 0xFFFFFFFFFFFFFFFFFFFFFFFFFFFFFFFFFFFFFFFF AND DUP2 MSTORE PUSH1 0x20 ADD SWAP1 DUP2 MSTORE PUSH1 0x20 ADD PUSH1 0x0 KECCAK256 SLOAD SWAP1 POP SWAP3 SWAP2 POP POP JUMP INVALID LOG2 PUSH5 0x6970667358 0x22 SLT KECCAK256 0xC2 CODESIZE PUSH31 0x33783E158426BDC77FBBEA41135F88A744002678D1FC5B19BD543E27386473 PUSH16 0x6C634300060C00330000000000000000 "
				},
				"gasEstimates": {
					"creation": {
						"codeDepositCost": "530800",
						"executionCost": "20665",
						"totalCost": "551465"
					},
					"external": {
						"allowance(address,address)": "1409",
						"approve(address,uint256)": "22385",
						"balanceOf(address)": "1218",
						"decimals()": "211",
						"isContract(address)": "1076",
						"name()": "infinite",
						"symbol()": "infinite",
						"totalSupply()": "280",
						"transfer(address,uint256)": "45083",
						"transferFrom(address,address,uint256)": "46990"
					}
				},
				"methodIdentifiers": {
					"allowance(address,address)": "dd62ed3e",
					"approve(address,uint256)": "095ea7b3",
					"balanceOf(address)": "70a08231",
					"decimals()": "313ce567",
					"isContract(address)": "16279055",
					"name()": "06fdde03",
					"symbol()": "95d89b41",
					"totalSupply()": "18160ddd",
					"transfer(address,uint256)": "a9059cbb",
					"transferFrom(address,address,uint256)": "23b872dd"
				}
			},
			"storageLayout": {
				"storage": [
					{
						"astId": 86,
						"contract": "AstroToken.sol/astroToken.sol:AstroToken",
						"label": "__balanceOf",
						"offset": 0,
						"slot": "0",
						"type": "t_mapping(t_address,t_uint256)"
					},
					{
						"astId": 92,
						"contract": "AstroToken.sol/astroToken.sol:AstroToken",
						"label": "__allowances",
						"offset": 0,
						"slot": "1",
						"type": "t_mapping(t_address,t_mapping(t_address,t_uint256))"
					}
				],
				"types": {
					"t_address": {
						"encoding": "inplace",
						"label": "address",
						"numberOfBytes": "20"
					},
					"t_mapping(t_address,t_mapping(t_address,t_uint256))": {
						"encoding": "mapping",
						"key": "t_address",
						"label": "mapping(address => mapping(address => uint256))",
						"numberOfBytes": "32",
						"value": "t_mapping(t_address,t_uint256)"
					},
					"t_mapping(t_address,t_uint256)": {
						"encoding": "mapping",
						"key": "t_address",
						"label": "mapping(address => uint256)",
						"numberOfBytes": "32",
						"value": "t_uint256"
					},
					"t_uint256": {
						"encoding": "inplace",
						"label": "uint256",
						"numberOfBytes": "32"
					}
				}
			},
			"userdoc": {
				"kind": "user",
				"methods": {},
				"version": 1
			}
		}
	}
}